:100000000C942A000C9447000C9447000C94470071
:100010000C9447000C9447000C9447000C94470044
:100020000C9447000C9447000C9447000C94470034
:100030000C9447000C9447000C9447000C94470024
:100040000C9447000C9447000C9447000C94470014
:100050000C94470011241FBECFE5D4E0DEBFCDBF16
:1000600010E0A0E6B0E0EAE9FAE002C005900D92E7
:10007000A03BB107D9F720E0A0EBB0E001C01D9292
:10008000AE3BB207E1F70E9497010C944B050C942C
:10009000000011B880E280B9089594EA96BF06B6D0
:1000A00007FEFDCF91B1987F983071F483B984E851
:1000B00086BF06B607FEFDCF81B1887F883131F05B
:1000C000803231F083E0089580E0089581E0089562
:1000D00082E0089594EA96BF06B607FEFDCF91B17F
:1000E000987F903171F483B984E886BF06B607FE25
:1000F000FDCF81B1887F803431F0803231F083E0F0
:10010000089580E0089581E0089582E0089584E9EB
:1001100086BF06B604FCFDCF089583B984E886BF88
:1001200006B607FEFDCF81B1887F883221F080338B
:1001300021F082E0089580E0089581E0089584EC44
:1001400086BF06B607FEFDCF83B190E0089584E830
:1001500086BF06B607FEFDCF83B190E0089598B341
:100160009F70282F207F922B98BBC098C19A32E0B5
:100170003A95F1F700C0C198E7ECF0E03197F1F75C
:1001800000C0000028B32F70F0E18F9FC001112440
:10019000822B88BBC19A32E03A95F1F700C0C19832
:1001A0008FE99FE00197F1F700C00000089598B330
:1001B0009F70282F207F922B98BBC09AC19A32E063
:1001C0003A95F1F700C0C198E7ECF0E03197F1F70C
:1001D00000C0000028B32F70F0E18F9FC0011124F0
:1001E000822B88BBC19A32E03A95F1F700C0C198E2
:1001F0008FE99FE00197F1F700C0000008958FEFAD
:1002000087BB2FEF81EE94E0215080409040E1F7D2
:1002100000C0000083E30E94AF0082E30E94AF00B1
:1002200088E20E94AF008CE00E94AF0081E00E9453
:10023000AF0082E80E94AF0008950F931F93CF9301
:10024000FC018081882359F08F01C0E00E94D70013
:10025000CF5FF801EC0FF11D80818111F7CFCF91B5
:100260001F910F910895CF93DF93EA01811108C088
:10027000603178F4862F8F7080680E94AF0009C0CB
:10028000813039F4603128F4862F8F70806C0E94A1
:10029000AF00CE010E941D01DF91CF910895CF9351
:1002A000C82F80ED0E944D008C2F0E948D0081EDA3
:1002B0000E946A000E949F009093B3008093B20056
:1002C0000E949F009093B5008093B4000E94A70005
:1002D0009093B7008093B6000E948700CF91089555
:1002E000CF93C82F80ED0E944D008C2F0E948D006F
:1002F00081ED0E946A000E949F009093BB00809352
:10030000BA000E949F009093BD008093BC000E94A1
:100310009F009093B1008093B0000E94A70090933B
:10032000B9008093B8000E948700CF910895CF93C1
:10033000DF93CDB7DEB7A2970FB6F894DEBF0FBE3E
:10034000CDBF8EE0E0E6F0E0DE01559601900D9223
:100350008A95E1F70E9449000E94FF000F2EFEE6F9
:10036000CF2EF0E0DF2EF02D8E010F5F1F4F0F2EEE
:10037000F6EBAF2EF0E0BF2EF02D0F2EF1E48F2E16
:10038000FDE49F2EF02D0F2EF0E56F2EFDE47F2E65
:10039000F02D0F2EFFE7EF2EF0E0FF2EF02D80E086
:1003A0000E944F018091B6009091B70086FF36C041
:1003B0002091B3002F932091B2002F932091B5008C
:1003C0002F932091B4002F938F7199279F938F9330
:1003D000DF92CF921F930F930E946102F5018081FB
:1003E0000FB6F894DEBF0FBECDBF85FF09C0F80180
:1003F00001900020E9F7319771826082128208C073
:10040000F80101900020E9F73197918280821282F1
:10041000A80160E080E00E94330120C02091B30079
:100420002F932091B2002F932091B5002F9320910C
:10043000B4002F938F7199279F938F93DF92CF9260
:100440001F930F930E946102A80160E080E00E9468
:1004500033010FB6F894DEBF0FBECDBF83E00E941C
:100460007001E091BA00F091BB003197EE0FFF1FD1
:10047000E00FF11F85898F9384898F938091B90054
:100480008F938091B8008F938091B1008F9380916A
:10049000B0008F938091BD008F938091BC008F93AB
:1004A000FF92EF921F930F930E946102A80160E0F8
:1004B00081E00E9433010FB6F894DEBF0FBECDBFBE
:1004C0006ECFAEE0B0E0E7E6F2E00C9422050D89D5
:1004D0001E8986E08C831A8309838FEF9FE79E83B2
:1004E0008D83AE01475E5F4F6F89788DCE01019697
:1004F0000E948302EF81F885E00FF11F10822E9693
:10050000E4E00C943E05ABE0B0E0E9E8F2E00C94E6
:1005100014056C017B018A01FC011782168283811C
:1005200081FFCCC1CE0101963C01F6019381F70118
:1005300093FD859193FF81917F01882309F4BAC1CE
:10054000853239F493FD859193FF81917F01853246
:1005500029F4B60190E00E947A04E7CF912C212C77
:10056000312CFFE1F315D8F08B3279F038F480327A
:1005700079F08332A1F4232D20611DC08D3261F00A
:10058000803369F4232D216016C0832D8260382EBC
:10059000E32DE4603E2E2AC0F32DF8601DC037FC29
:1005A0002DC020ED280F2A3040F08E32B9F436FCF1
:1005B00081C1232D2064322E19C036FE06C08AE088
:1005C000989E200D1124922E11C0EAE02E9E200D3F
:1005D0001124222EF32DF0623F2E08C08C3621F418
:1005E000832D8068382E02C0883641F4F70193FDD0
:1005F000859193FF81917F018111B3CF982F9F7DCA
:100600009554933028F40C5F1F4F9FE399830DC0DE
:10061000833631F0833771F0833509F059C021C03A
:10062000F801808189830E5F1F4F88248394912C69
:10063000530113C02801F2E04F0E511CF801A080B5
:10064000B18036FE03C0692D70E002C06FEF7FEF0E
:10065000C5010E946F044C018201F32DFF773F2EEC
:1006600016C0280122E0420E511CF801A080B18082
:1006700036FE03C0692D70E002C06FEF7FEFC50149
:100680000E9464044C01F32DF0683F2E820133FC7C
:100690001BC0822D90E088169906B0F4B60180E266
:1006A00090E00E947A042A94F4CFF50137FC8591FA
:1006B00037FE81915F01B60190E00E947A0421101B
:1006C0002A9421E0821A91088114910471F7E8C0FC
:1006D000843611F0893641F5F80137FE07C0608194
:1006E0007181828193810C5F1F4F08C0608171818D
:1006F000072E000C880B990B0E5F1F4FF32DFF7612
:100700003F2E97FF09C090958095709561957F4F1A
:100710008F4F9F4FF0683F2E2AE030E0A3010E94E8
:10072000B604882E861845C0853731F4232D2F7ED8
:10073000B22E2AE030E025C0932D997FB92E8F3656
:10074000C1F018F4883579F0B5C0803719F08837D2
:1007500021F0B0C0E92FE061BE2EB4FE0DC0FB2D2C
:10076000F460BF2E09C034FE0AC0292F2660B22EC5
:1007700006C028E030E005C020E130E002C020E102
:1007800032E0F801B7FE07C06081718182819381F8
:100790000C5F1F4F06C06081718180E090E00E5FAA
:1007A0001F4FA3010E94B604882E8618FB2DFF77E9
:1007B0003F2E36FE0DC0232D2E7FA22E891458F415
:1007C00034FE0BC032FC09C0832D8E7EA82E05C0DE
:1007D000B82CA32C03C0B82C01C0B92CA4FE0FC0A8
:1007E000FE01E80DF11D8081803321F49A2D997E60
:1007F000A92E09C0A2FE06C0B394B39404C08A2DEA
:10080000867809F0B394A3FC11C0A0FE06C0B21410
:1008100088F4280C922C9B180EC0B21460F4B60118
:1008200080E290E00E947A04B394F7CFB21418F4F7
:100830002B1802C0982C212CA4FE10C0B60180E316
:1008400090E00E947A04A2FE17C0A1FC03C088E7D2
:1008500090E002C088E590E0B6010CC08A2D867851
:1008600059F0A1FE02C08BE201C080E2A7FC8DE23C
:10087000B60190E00E947A04891438F4B60180E34E
:1008800090E00E947A049A94F7CF8A94F301E80DDD
:10089000F11D8081B60190E00E947A048110F5CFAD
:1008A000222009F442CEB60180E290E00E947A0450
:1008B0002A94F6CFF6018681978102C08FEF9FEFD1
:1008C0002B96E2E10C943005FC01059061507040DC
:1008D0000110D8F7809590958E0F9F1F0895FC0109
:1008E0006150704001900110D8F7809590958E0F5F
:1008F0009F1F08950F931F93CF93DF93FB012381D5
:1009000021FD03C08FEF9FEF2CC022FF16C0468150
:100910005781248135814217530744F4A081B18166
:100920009D012F5F3F4F318320838C932681378138
:100930002F5F3F4F3783268314C08B01EC01FB01EF
:100940000084F185E02D0995892BE1F6D8011696F2
:100950008D919C911797019617969C938E9316975D
:10096000CE01DF91CF911F910F910895FA01AA272F
:10097000283051F1203181F1E8946F936E7F6E5FE2
:100980007F4F8F4F9F4FAF4FB1E03ED0B4E03CD090
:10099000670F781F891F9A1FA11D680F791F8A1F73
:1009A000911DA11D6A0F711D811D911DA11D20D0DA
:1009B00009F468943F912AE0269F11243019305D94
:1009C0003193DEF6CF010895462F4770405D419385
:1009D000B3E00FD0C9F7F6CF462F4F70405D4A33D2
:1009E00018F0495D31FD4052419302D0A9F7EACF9A
:1009F000B4E0A6959795879577956795BA95C9F7C9
:100A000000976105710508959B01AC010A2E0694BB
:100A10005795479537952795BA95C9F7620F731F74
:100A2000841F951FA01D08952F923F924F925F92B1
:100A30006F927F928F929F92AF92BF92CF92DF92EE
:100A4000EF92FF920F931F93CF93DF93CDB7DEB753
:100A5000CA1BDB0B0FB6F894DEBF0FBECDBF0994E7
:100A60002A88398848885F846E847D848C849B843E
:100A7000AA84B984C884DF80EE80FD800C811B814C
:100A8000AA81B981CE0FD11D0FB6F894DEBF0FBE7B
:0A0A9000CDBFED010895F894FFCFEB
:100A9A00930097009B009F00A300A700AB0025309E
:100AAA0032783A253032783A2530327820200025BB
:100ABA003032782F253032782F253032782025337E
:100ACA0073200053756E004D6F6E005475650057A4
:100ADA0065640054687500467269005361740000C9
:00000001FF
